{
  "contractName": "CrowdBank",
  "abi": [
    {
      "constant": true,
      "inputs": [
        {
          "name": "",
          "type": "address"
        },
        {
          "name": "",
          "type": "uint256"
        }
      ],
      "name": "loanMap",
      "outputs": [
        {
          "name": "",
          "type": "uint256"
        }
      ],
      "payable": false,
      "stateMutability": "view",
      "type": "function"
    },
    {
      "constant": true,
      "inputs": [
        {
          "name": "",
          "type": "uint256"
        }
      ],
      "name": "loanList",
      "outputs": [
        {
          "name": "borrower",
          "type": "address"
        },
        {
          "name": "state",
          "type": "uint8"
        },
        {
          "name": "dueDate",
          "type": "uint256"
        },
        {
          "name": "amount",
          "type": "uint256"
        },
        {
          "name": "proposalCount",
          "type": "uint256"
        },
        {
          "name": "collected",
          "type": "uint256"
        },
        {
          "name": "startDate",
          "type": "uint256"
        },
        {
          "name": "mortgage",
          "type": "bytes32"
        }
      ],
      "payable": false,
      "stateMutability": "view",
      "type": "function"
    },
    {
      "constant": true,
      "inputs": [],
      "name": "owner",
      "outputs": [
        {
          "name": "",
          "type": "address"
        }
      ],
      "payable": false,
      "stateMutability": "view",
      "type": "function"
    },
    {
      "constant": true,
      "inputs": [
        {
          "name": "",
          "type": "uint256"
        }
      ],
      "name": "proposalList",
      "outputs": [
        {
          "name": "lender",
          "type": "address"
        },
        {
          "name": "loanId",
          "type": "uint256"
        },
        {
          "name": "state",
          "type": "uint8"
        },
        {
          "name": "rate",
          "type": "uint256"
        },
        {
          "name": "amount",
          "type": "uint256"
        }
      ],
      "payable": false,
      "stateMutability": "view",
      "type": "function"
    },
    {
      "constant": true,
      "inputs": [
        {
          "name": "",
          "type": "address"
        },
        {
          "name": "",
          "type": "uint256"
        }
      ],
      "name": "lendMap",
      "outputs": [
        {
          "name": "",
          "type": "uint256"
        }
      ],
      "payable": false,
      "stateMutability": "view",
      "type": "function"
    },
    {
      "inputs": [],
      "payable": false,
      "stateMutability": "nonpayable",
      "type": "constructor"
    },
    {
      "constant": false,
      "inputs": [
        {
          "name": "amount",
          "type": "uint256"
        },
        {
          "name": "dueDate",
          "type": "uint256"
        },
        {
          "name": "mortgage",
          "type": "bytes32"
        }
      ],
      "name": "newLoan",
      "outputs": [],
      "payable": false,
      "stateMutability": "nonpayable",
      "type": "function"
    },
    {
      "constant": true,
      "inputs": [
        {
          "name": "borrower",
          "type": "address"
        }
      ],
      "name": "hasActiveLoan",
      "outputs": [
        {
          "name": "",
          "type": "bool"
        }
      ],
      "payable": false,
      "stateMutability": "view",
      "type": "function"
    },
    {
      "constant": true,
      "inputs": [
        {
          "name": "borrower",
          "type": "address"
        }
      ],
      "name": "getActiveLoanId",
      "outputs": [
        {
          "name": "",
          "type": "uint256"
        }
      ],
      "payable": false,
      "stateMutability": "view",
      "type": "function"
    },
    {
      "constant": false,
      "inputs": [
        {
          "name": "loanId",
          "type": "uint256"
        }
      ],
      "name": "lockLoan",
      "outputs": [],
      "payable": false,
      "stateMutability": "nonpayable",
      "type": "function"
    },
    {
      "constant": true,
      "inputs": [
        {
          "name": "loanId",
          "type": "uint256"
        }
      ],
      "name": "getRepayValue",
      "outputs": [
        {
          "name": "",
          "type": "uint256"
        }
      ],
      "payable": false,
      "stateMutability": "view",
      "type": "function"
    },
    {
      "constant": false,
      "inputs": [
        {
          "name": "loanId",
          "type": "uint256"
        }
      ],
      "name": "repayLoan",
      "outputs": [],
      "payable": true,
      "stateMutability": "payable",
      "type": "function"
    },
    {
      "constant": false,
      "inputs": [
        {
          "name": "proposeId",
          "type": "uint256"
        }
      ],
      "name": "acceptProposal",
      "outputs": [],
      "payable": false,
      "stateMutability": "nonpayable",
      "type": "function"
    },
    {
      "constant": true,
      "inputs": [
        {
          "name": "borrower",
          "type": "address"
        }
      ],
      "name": "totalLoansBy",
      "outputs": [
        {
          "name": "",
          "type": "uint256"
        }
      ],
      "payable": false,
      "stateMutability": "view",
      "type": "function"
    },
    {
      "constant": true,
      "inputs": [
        {
          "name": "borrower",
          "type": "address"
        },
        {
          "name": "pos",
          "type": "uint256"
        }
      ],
      "name": "getLoanDetailsByAddressPosition",
      "outputs": [
        {
          "name": "",
          "type": "uint8"
        },
        {
          "name": "",
          "type": "uint256"
        },
        {
          "name": "",
          "type": "uint256"
        },
        {
          "name": "",
          "type": "uint256"
        },
        {
          "name": "",
          "type": "uint256"
        },
        {
          "name": "",
          "type": "bytes32"
        }
      ],
      "payable": false,
      "stateMutability": "view",
      "type": "function"
    },
    {
      "constant": true,
      "inputs": [
        {
          "name": "borrower",
          "type": "address"
        }
      ],
      "name": "getLastLoanState",
      "outputs": [
        {
          "name": "",
          "type": "uint8"
        }
      ],
      "payable": false,
      "stateMutability": "view",
      "type": "function"
    },
    {
      "constant": true,
      "inputs": [
        {
          "name": "borrower",
          "type": "address"
        }
      ],
      "name": "getLastLoanDetails",
      "outputs": [
        {
          "name": "",
          "type": "uint8"
        },
        {
          "name": "",
          "type": "uint256"
        },
        {
          "name": "",
          "type": "uint256"
        },
        {
          "name": "",
          "type": "uint256"
        },
        {
          "name": "",
          "type": "uint256"
        }
      ],
      "payable": false,
      "stateMutability": "view",
      "type": "function"
    },
    {
      "constant": true,
      "inputs": [
        {
          "name": "loanId",
          "type": "uint256"
        },
        {
          "name": "numI",
          "type": "uint256"
        }
      ],
      "name": "getProposalDetailsByLoanIdPosition",
      "outputs": [
        {
          "name": "",
          "type": "uint8"
        },
        {
          "name": "",
          "type": "uint256"
        },
        {
          "name": "",
          "type": "uint256"
        },
        {
          "name": "",
          "type": "uint256"
        },
        {
          "name": "",
          "type": "address"
        }
      ],
      "payable": false,
      "stateMutability": "view",
      "type": "function"
    },
    {
      "constant": true,
      "inputs": [],
      "name": "numTotalLoans",
      "outputs": [
        {
          "name": "",
          "type": "uint256"
        }
      ],
      "payable": false,
      "stateMutability": "view",
      "type": "function"
    },
    {
      "constant": false,
      "inputs": [
        {
          "name": "loanId",
          "type": "uint256"
        },
        {
          "name": "rate",
          "type": "uint256"
        }
      ],
      "name": "newProposal",
      "outputs": [],
      "payable": true,
      "stateMutability": "payable",
      "type": "function"
    },
    {
      "constant": false,
      "inputs": [
        {
          "name": "id",
          "type": "uint256"
        }
      ],
      "name": "revokeMyProposal",
      "outputs": [],
      "payable": false,
      "stateMutability": "nonpayable",
      "type": "function"
    },
    {
      "constant": true,
      "inputs": [
        {
          "name": "lender",
          "type": "address"
        }
      ],
      "name": "totalProposalsBy",
      "outputs": [
        {
          "name": "",
          "type": "uint256"
        }
      ],
      "payable": false,
      "stateMutability": "view",
      "type": "function"
    },
    {
      "constant": true,
      "inputs": [
        {
          "name": "lender",
          "type": "address"
        },
        {
          "name": "pos",
          "type": "uint256"
        }
      ],
      "name": "getProposalAtPosFor",
      "outputs": [
        {
          "name": "",
          "type": "address"
        },
        {
          "name": "",
          "type": "uint256"
        },
        {
          "name": "",
          "type": "uint8"
        },
        {
          "name": "",
          "type": "uint256"
        },
        {
          "name": "",
          "type": "uint256"
        },
        {
          "name": "",
          "type": "uint256"
        },
        {
          "name": "",
          "type": "uint256"
        },
        {
          "name": "",
          "type": "bytes32"
        }
      ],
      "payable": false,
      "stateMutability": "view",
      "type": "function"
    }
  ],
  "bytecode": "0x608060405234801561001057600080fd5b50336000806101000a81548173ffffffffffffffffffffffffffffffffffffffff021916908373ffffffffffffffffffffffffffffffffffffffff160217905550612509806100606000396000f3fe6080604052600436106101355760003560e01c80638da5cb5b116100ab578063ac51ba961161006f578063ac51ba96146107d1578063bad9e65a14610836578063c6311e3f146108a9578063e24afbb61461094e578063faa72d63146109b3578063fccd238c14610a2257610135565b80638da5cb5b1461067157806398325656146106c85780639ce9cc561461072d578063a180f61b14610768578063ab7b1c89146107a357610135565b8063277411d2116100fd578063277411d21461033957806360c5cc3a1461041357806363e846481461044e5780637621710c146104fd5780638a190636146105b75780638cad507d1461064657610135565b8063052065df1461013a5780630b278f72146101da5780631594a313146102295780631801f00f1461029857806321d4f8db146102d0575b600080fd5b34801561014657600080fd5b506101936004803603604081101561015d57600080fd5b81019080803573ffffffffffffffffffffffffffffffffffffffff16906020019092919080359060200190929190505050610a71565b604051808760038111156101a357fe5b60ff168152602001868152602001858152602001848152602001838152602001828152602001965050505050505060405180910390f35b3480156101e657600080fd5b50610213600480360360208110156101fd57600080fd5b8101908080359060200190929190505050610b7f565b6040518082815260200191505060405180910390f35b34801561023557600080fd5b506102826004803603604081101561024c57600080fd5b81019080803573ffffffffffffffffffffffffffffffffffffffff16906020019092919080359060200190929190505050610d39565b6040518082815260200191505060405180910390f35b6102ce600480360360408110156102ae57600080fd5b810190808035906020019092919080359060200190929190505050610d67565b005b3480156102dc57600080fd5b5061031f600480360360208110156102f357600080fd5b81019080803573ffffffffffffffffffffffffffffffffffffffff169060200190929190505050611033565b604051808215151515815260200191505060405180910390f35b34801561034557600080fd5b506103926004803603604081101561035c57600080fd5b81019080803573ffffffffffffffffffffffffffffffffffffffff169060200190929190803590602001909291905050506111be565b604051808973ffffffffffffffffffffffffffffffffffffffff1673ffffffffffffffffffffffffffffffffffffffff1681526020018881526020018760028111156103da57fe5b60ff1681526020018681526020018581526020018481526020018381526020018281526020019850505050505050505060405180910390f35b34801561041f57600080fd5b5061044c6004803603602081101561043657600080fd5b810190808035906020019092919050505061130d565b005b34801561045a57600080fd5b506104916004803603604081101561047157600080fd5b810190808035906020019092919080359060200190929190505050611468565b604051808660028111156104a157fe5b60ff1681526020018581526020018481526020018381526020018273ffffffffffffffffffffffffffffffffffffffff1673ffffffffffffffffffffffffffffffffffffffff1681526020019550505050505060405180910390f35b34801561050957600080fd5b506105366004803603602081101561052057600080fd5b8101908080359060200190929190505050611546565b604051808973ffffffffffffffffffffffffffffffffffffffff1673ffffffffffffffffffffffffffffffffffffffff16815260200188600381111561057857fe5b60ff1681526020018781526020018681526020018581526020018481526020018381526020018281526020019850505050505050505060405180910390f35b3480156105c357600080fd5b50610606600480360360208110156105da57600080fd5b81019080803573ffffffffffffffffffffffffffffffffffffffff1690602001909291905050506115c8565b6040518086600381111561061657fe5b60ff1681526020018581526020018481526020018381526020018281526020019550505050505060405180910390f35b34801561065257600080fd5b5061065b6116c7565b6040518082815260200191505060405180910390f35b34801561067d57600080fd5b506106866116d4565b604051808273ffffffffffffffffffffffffffffffffffffffff1673ffffffffffffffffffffffffffffffffffffffff16815260200191505060405180910390f35b3480156106d457600080fd5b50610717600480360360208110156106eb57600080fd5b81019080803573ffffffffffffffffffffffffffffffffffffffff1690602001909291905050506116f9565b6040518082815260200191505060405180910390f35b34801561073957600080fd5b506107666004803603602081101561075057600080fd5b810190808035906020019092919050505061181d565b005b34801561077457600080fd5b506107a16004803603602081101561078b57600080fd5b8101908080359060200190929190505050611b4f565b005b6107cf600480360360208110156107b957600080fd5b8101908080359060200190929190505050611dec565b005b3480156107dd57600080fd5b50610820600480360360208110156107f457600080fd5b81019080803573ffffffffffffffffffffffffffffffffffffffff1690602001909291905050506120f7565b6040518082815260200191505060405180910390f35b34801561084257600080fd5b506108856004803603602081101561085957600080fd5b81019080803573ffffffffffffffffffffffffffffffffffffffff169060200190929190505050612143565b6040518082600381111561089557fe5b60ff16815260200191505060405180910390f35b3480156108b557600080fd5b506108e2600480360360208110156108cc57600080fd5b810190808035906020019092919050505061222a565b604051808673ffffffffffffffffffffffffffffffffffffffff1673ffffffffffffffffffffffffffffffffffffffff16815260200185815260200184600281111561092a57fe5b60ff1681526020018381526020018281526020019550505050505060405180910390f35b34801561095a57600080fd5b5061099d6004803603602081101561097157600080fd5b81019080803573ffffffffffffffffffffffffffffffffffffffff16906020019092919050505061229a565b6040518082815260200191505060405180910390f35b3480156109bf57600080fd5b50610a0c600480360360408110156109d657600080fd5b81019080803573ffffffffffffffffffffffffffffffffffffffff169060200190929190803590602001909291905050506122e6565b6040518082815260200191505060405180910390f35b348015610a2e57600080fd5b50610a6f60048036036060811015610a4557600080fd5b81019080803590602001909291908035906020019092919080359060200190929190505050612314565b005b60008060008060008060006001600360008b73ffffffffffffffffffffffffffffffffffffffff1673ffffffffffffffffffffffffffffffffffffffff1681526020019081526020016000208981548110610ac857fe5b906000526020600020015481548110610add57fe5b906000526020600020906008020190508060000160149054906101000a900460ff16816001015482600201548360040154600360008e73ffffffffffffffffffffffffffffffffffffffff1673ffffffffffffffffffffffffffffffffffffffff1681526020019081526020016000208c81548110610b5857fe5b90600052602060002001548560060154965096509650965096509650509295509295509295565b600060016003811115610b8e57fe5b60018381548110610b9b57fe5b906000526020600020906008020160000160149054906101000a900460ff166003811115610bc557fe5b1415610d2857600060018381548110610bda57fe5b9060005260206000209060080201600501549050600080905060008090505b60018581548110610c0657fe5b906000526020600020906008020160030154811015610d1d57600060018681548110610c2e57fe5b9060005260206000209060080201600701600083815260200190815260200160002054905060016002811115610c6057fe5b60028281548110610c6d57fe5b906000526020600020906005020160020160009054906101000a900460ff166002811115610c9757fe5b1415610d0f57600060028281548110610cac57fe5b9060005260206000209060050201600401549050600060028381548110610ccf57fe5b90600052602060002090600502016003015490506000429050600063bbf81e008883038486020281610cfd57fe5b04905080870196508387019650505050505b508080600101915050610bf9565b508092505050610d34565b67ffffffffffffffff90505b919050565b60036020528160005260406000208181548110610d5257fe5b90600052602060002001600091509150505481565b600073ffffffffffffffffffffffffffffffffffffffff1660018381548110610d8c57fe5b906000526020600020906008020160000160009054906101000a900473ffffffffffffffffffffffffffffffffffffffff1673ffffffffffffffffffffffffffffffffffffffff161480610e22575060006003811115610de857fe5b60018381548110610df557fe5b906000526020600020906008020160000160149054906101000a900460ff166003811115610e1f57fe5b14155b15610e2c5761102f565b60026040518060a001604052803373ffffffffffffffffffffffffffffffffffffffff16815260200184815260200160006002811115610e6857fe5b8152602001838152602001348152509080600181540180825580915050906001820390600052602060002090600502016000909192909190915060008201518160000160006101000a81548173ffffffffffffffffffffffffffffffffffffffff021916908373ffffffffffffffffffffffffffffffffffffffff1602179055506020820151816001015560408201518160020160006101000a81548160ff02191690836002811115610f1757fe5b02179055506060820151816003015560808201518160040155505050600460003373ffffffffffffffffffffffffffffffffffffffff1673ffffffffffffffffffffffffffffffffffffffff168152602001908152602001600020600160028054905003908060018154018082558091505090600182039060005260206000200160009091929091909150555060018281548110610fb157fe5b90600052602060002090600802016003016000815480929190600101919050555060016002805490500360018381548110610fe857fe5b90600052602060002090600802016007016000600180868154811061100957fe5b906000526020600020906008020160030154038152602001908152602001600020819055505b5050565b600080600360008473ffffffffffffffffffffffffffffffffffffffff1673ffffffffffffffffffffffffffffffffffffffff168152602001908152602001600020805490509050600081141561108e5760009150506111b9565b60006001600360008673ffffffffffffffffffffffffffffffffffffffff1673ffffffffffffffffffffffffffffffffffffffff16815260200190815260200160002060018403815481106110df57fe5b9060005260206000200154815481106110f457fe5b906000526020600020906008020190506000600381111561111157fe5b60018084038154811061112057fe5b906000526020600020906008020160000160149054906101000a900460ff16600381111561114a57fe5b141561115b576001925050506111b9565b6001600381111561116857fe5b60018084038154811061117757fe5b906000526020600020906008020160000160149054906101000a900460ff1660038111156111a157fe5b14156111b2576001925050506111b9565b6000925050505b919050565b60008060008060008060008060006002600460008d73ffffffffffffffffffffffffffffffffffffffff1673ffffffffffffffffffffffffffffffffffffffff1681526020019081526020016000208b8154811061121857fe5b90600052602060002001548154811061122d57fe5b906000526020600020906005020190508060000160009054906101000a900473ffffffffffffffffffffffffffffffffffffffff1681600101548260020160009054906101000a900460ff1683600301548460040154600186600101548154811061129457fe5b90600052602060002090600802016002015460018760010154815481106112b757fe5b90600052602060002090600802016001015460018860010154815481106112da57fe5b90600052602060002090600802016006015487975098509850985098509850985098509850509295985092959890939650565b6000611318336116f9565b905067ffffffffffffffff8114156113305750611465565b60006002838154811061133f57fe5b906000526020600020906005020190506000600281111561135c57fe5b8160020160009054906101000a900460ff16600281111561137957fe5b14611385575050611465565b60006001838154811061139457fe5b90600052602060002090600802019050600060038111156113b157fe5b8160000160149054906101000a900460ff1660038111156113ce57fe5b146113db57505050611465565b80600201548260040154826004015401116114615781600401546001848154811061140257fe5b90600052602060002090600802016004016000828254019250508190555060016002858154811061142f57fe5b906000526020600020906005020160020160006101000a81548160ff0219169083600281111561145b57fe5b02179055505b5050505b50565b60008060008060008060026001898154811061148057fe5b9060005260206000209060080201600701600089815260200190815260200160002054815481106114ad57fe5b906000526020600020906005020190508060020160009054906101000a900460ff168160030154826004015460018b815481106114e657fe5b906000526020600020906008020160070160008b8152602001908152602001600020548460000160009054906101000a900473ffffffffffffffffffffffffffffffffffffffff1680905095509550955095509550509295509295909350565b6001818154811061155357fe5b90600052602060002090600802016000915090508060000160009054906101000a900473ffffffffffffffffffffffffffffffffffffffff16908060000160149054906101000a900460ff16908060010154908060020154908060030154908060040154908060050154908060060154905088565b600080600080600080600360008873ffffffffffffffffffffffffffffffffffffffff1673ffffffffffffffffffffffffffffffffffffffff16815260200190815260200160002080549050905060006001600360008a73ffffffffffffffffffffffffffffffffffffffff1673ffffffffffffffffffffffffffffffffffffffff168152602001908152602001600020600184038154811061166757fe5b90600052602060002001548154811061167c57fe5b906000526020600020906008020190508060000160149054906101000a900460ff16816001015482600201548360030154846004015496509650965096509650505091939590929450565b6000600180549050905090565b6000809054906101000a900473ffffffffffffffffffffffffffffffffffffffff1681565b600080600360008473ffffffffffffffffffffffffffffffffffffffff1673ffffffffffffffffffffffffffffffffffffffff168152602001908152602001600020805490509050600081141561175b5767ffffffffffffffff915050611818565b6000600360008573ffffffffffffffffffffffffffffffffffffffff1673ffffffffffffffffffffffffffffffffffffffff16815260200190815260200160002060018303815481106117aa57fe5b90600052602060002001549050600060038111156117c457fe5b600182815481106117d157fe5b906000526020600020906008020160000160149054906101000a900460ff1660038111156117fb57fe5b146118125767ffffffffffffffff92505050611818565b80925050505b919050565b6000600460003373ffffffffffffffffffffffffffffffffffffffff1673ffffffffffffffffffffffffffffffffffffffff168152602001908152602001600020828154811061186957fe5b906000526020600020015490506000600281111561188357fe5b6002828154811061189057fe5b906000526020600020906005020160020160009054906101000a900460ff1660028111156118ba57fe5b146118c55750611b4c565b6000600282815481106118d457fe5b9060005260206000209060050201600101549050600060038111156118f557fe5b6001828154811061190257fe5b906000526020600020906008020160000160149054906101000a900460ff16600381111561192c57fe5b14156119db57600280838154811061194057fe5b906000526020600020906005020160020160006101000a81548160ff0219169083600281111561196c57fe5b02179055503373ffffffffffffffffffffffffffffffffffffffff166108fc6002848154811061199857fe5b9060005260206000209060050201600401549081150290604051600060405180830381858888f193505050501580156119d5573d6000803e3d6000fd5b50611b49565b600160038111156119e857fe5b600182815481106119f557fe5b906000526020600020906008020160000160149054906101000a900460ff166003811115611a1f57fe5b1415611b48574260018281548110611a3357fe5b9060005260206000209060080201600101541015611a52575050611b4c565b600360018281548110611a6157fe5b906000526020600020906008020160000160146101000a81548160ff02191690836003811115611a8d57fe5b021790555060008090505b60018281548110611aa557fe5b906000526020600020906008020160030154811015611b4657600060018381548110611acd57fe5b9060005260206000209060080201600701600083815260200190815260200160002054905060016002811115611aff57fe5b60028281548110611b0c57fe5b906000526020600020906005020160020160009054906101000a900460ff166002811115611b3657fe5b5050508080600101915050611a98565b505b5b50505b50565b60006003811115611b5c57fe5b60018281548110611b6957fe5b906000526020600020906008020160000160149054906101000a900460ff166003811115611b9357fe5b1415611de3576001808281548110611ba757fe5b906000526020600020906008020160000160146101000a81548160ff02191690836003811115611bd357fe5b021790555060008090505b60018281548110611beb57fe5b906000526020600020906008020160030154811015611ddd57600060018381548110611c1357fe5b9060005260206000209060080201600701600083815260200190815260200160002054905060016002811115611c4557fe5b60028281548110611c5257fe5b906000526020600020906005020160020160009054906101000a900460ff166002811115611c7c57fe5b1415611cec573373ffffffffffffffffffffffffffffffffffffffff166108fc60028381548110611ca957fe5b9060005260206000209060050201600401549081150290604051600060405180830381858888f19350505050158015611ce6573d6000803e3d6000fd5b50611dcf565b6002808281548110611cfa57fe5b906000526020600020906005020160020160006101000a81548160ff02191690836002811115611d2657fe5b021790555060028181548110611d3857fe5b906000526020600020906005020160000160009054906101000a900473ffffffffffffffffffffffffffffffffffffffff1673ffffffffffffffffffffffffffffffffffffffff166108fc60028381548110611d9057fe5b9060005260206000209060050201600401549081150290604051600060405180830381858888f19350505050158015611dcd573d6000803e3d6000fd5b505b508080600101915050611bde565b50611de8565b611de9565b5b50565b60004290506000611dfc83610b7f565b9050600060018481548110611e0d57fe5b906000526020600020906008020160050154905060003490508281106120a85760008382039050600260018781548110611e4357fe5b906000526020600020906008020160000160146101000a81548160ff02191690836003811115611e6f57fe5b021790555060008090505b60018781548110611e8757fe5b90600052602060002090600802016003015481101561205a57600060018881548110611eaf57fe5b9060005260206000209060080201600701600083815260200190815260200160002054905060016002811115611ee157fe5b60028281548110611eee57fe5b906000526020600020906005020160020160009054906101000a900460ff166002811115611f1857fe5b141561204c57600060028281548110611f2d57fe5b9060005260206000209060050201600401549050600060028381548110611f5057fe5b9060005260206000209060050201600301549050600063bbf81e00888b038385020281611f7957fe5b0490506000838201905060028581548110611f9057fe5b906000526020600020906005020160000160009054906101000a900473ffffffffffffffffffffffffffffffffffffffff1673ffffffffffffffffffffffffffffffffffffffff166108fc829081150290604051600060405180830381858888f19350505050158015612007573d6000803e3d6000fd5b50600280868154811061201657fe5b906000526020600020906005020160020160006101000a81548160ff0219169083600281111561204257fe5b0217905550505050505b508080600101915050611e7a565b503373ffffffffffffffffffffffffffffffffffffffff166108fc829081150290604051600060405180830381858888f193505050501580156120a1573d6000803e3d6000fd5b50506120f0565b3373ffffffffffffffffffffffffffffffffffffffff166108fc829081150290604051600060405180830381858888f193505050501580156120ee573d6000803e3d6000fd5b505b5050505050565b6000600460008373ffffffffffffffffffffffffffffffffffffffff1673ffffffffffffffffffffffffffffffffffffffff168152602001908152602001600020805490509050919050565b600080600360008473ffffffffffffffffffffffffffffffffffffffff1673ffffffffffffffffffffffffffffffffffffffff168152602001908152602001600020805490509050600081141561219e576002915050612225565b6001600360008573ffffffffffffffffffffffffffffffffffffffff1673ffffffffffffffffffffffffffffffffffffffff16815260200190815260200160002060018303815481106121ed57fe5b90600052602060002001548154811061220257fe5b906000526020600020906008020160000160149054906101000a900460ff169150505b919050565b6002818154811061223757fe5b90600052602060002090600502016000915090508060000160009054906101000a900473ffffffffffffffffffffffffffffffffffffffff16908060010154908060020160009054906101000a900460ff16908060030154908060040154905085565b6000600360008373ffffffffffffffffffffffffffffffffffffffff1673ffffffffffffffffffffffffffffffffffffffff168152602001908152602001600020805490509050919050565b600460205281600052604060002081815481106122ff57fe5b90600052602060002001600091509150505481565b61231d33611033565b15612327576124d8565b600042905060016040518061010001604052803373ffffffffffffffffffffffffffffffffffffffff1681526020016000600381111561236357fe5b81526020018581526020018681526020016000815260200160008152602001838152602001848152509080600181540180825580915050906001820390600052602060002090600802016000909192909190915060008201518160000160006101000a81548173ffffffffffffffffffffffffffffffffffffffff021916908373ffffffffffffffffffffffffffffffffffffffff16021790555060208201518160000160146101000a81548160ff0219169083600381111561242257fe5b021790555060408201518160010155606082015181600201556080820151816003015560a0820151816004015560c0820151816005015560e08201518160060155505050600360003373ffffffffffffffffffffffffffffffffffffffff1673ffffffffffffffffffffffffffffffffffffffff16815260200190815260200160002060018080549050039080600181540180825580915050906001820390600052602060002001600090919290919091505550505b50505056fea165627a7a723058201b44831df2ff1ccf05a3fe5f27abb05dd685f353e7dea9349f4c39f0bdbb2f410029",
  "source": "pragma solidity ^0.5.0;\r\ncontract CrowdBank {\r\n\r\n    address public owner;\r\n\r\n    enum ProposalState {\r\n        WAITING,\r\n        ACCEPTED,\r\n        REPAID\r\n    }\r\n\r\n    struct Proposal {\r\n        address payable lender;\r\n        uint loanId;\r\n        ProposalState state;\r\n        uint rate;\r\n        uint amount;\r\n    }\r\n\r\n    enum LoanState {\r\n        ACCEPTING,\r\n        LOCKED,\r\n        SUCCESSFUL,\r\n        FAILED\r\n    }\r\n\r\n    struct Loan {\r\n        address borrower;\r\n        LoanState state;\r\n        uint dueDate;\r\n        uint amount;\r\n        uint proposalCount;\r\n        uint collected;\r\n        uint startDate;\r\n        bytes32 mortgage;\r\n        mapping (uint=>uint) proposal;\r\n    }\r\n\r\n    Loan[] public loanList;\r\n    Proposal[] public proposalList;\r\n\r\n    mapping (address=>uint[]) public loanMap;\r\n    mapping (address=>uint[]) public lendMap;\r\n\r\n    constructor() public{\r\n        owner = msg.sender;\r\n    }\r\n\r\n// Borrower side methods:\r\n\r\n\r\n    function newLoan(uint amount, uint dueDate, bytes32 mortgage) public {\r\n\r\n         // User cannot have more than one active loan\r\n         if(hasActiveLoan(msg.sender)) return;\r\n        uint currentDate = block.timestamp;\r\n        loanList.push(Loan(msg.sender, LoanState.ACCEPTING, dueDate, amount, 0, 0, currentDate, mortgage));\r\n        loanMap[msg.sender].push(loanList.length-1);\r\n    }\r\n\r\n    function hasActiveLoan(address borrower) public view returns(bool) {\r\n        uint validLoans = loanMap[borrower].length;\r\n        if(validLoans == 0) return false;\r\n        Loan storage obj = loanList[loanMap[borrower][validLoans-1]];\r\n        if(loanList[validLoans-1].state == LoanState.ACCEPTING) return true;\r\n        if(loanList[validLoans-1].state == LoanState.LOCKED) return true;\r\n        return false;\r\n    }\r\n\r\n    function getActiveLoanId(address borrower) public view returns(uint) {\r\n            uint numLoans = loanMap[borrower].length;\r\n            if(numLoans == 0) return (2**64 - 1);\r\n            uint lastLoanId = loanMap[borrower][numLoans-1];\r\n            if(loanList[lastLoanId].state != LoanState.ACCEPTING) return (2**64 - 1);\r\n            return lastLoanId;\r\n        }\r\n\r\n\r\n\r\n\r\n     function lockLoan(uint loanId) public {\r\n        //contract will send money to msg.sender\r\n        //states of proposals would be finalized, not accepted proposals would be reimbursed\r\n        if(loanList[loanId].state == LoanState.ACCEPTING)\r\n        {\r\n          loanList[loanId].state = LoanState.LOCKED;\r\n          for(uint i = 0; i < loanList[loanId].proposalCount; i++)\r\n          {\r\n            uint numI = loanList[loanId].proposal[i];\r\n            if(proposalList[numI].state == ProposalState.ACCEPTED)\r\n            {\r\n              msg.sender.transfer(proposalList[numI].amount); //Send to borrower\r\n            }\r\n            else\r\n            {\r\n              proposalList[numI].state = ProposalState.REPAID;\r\n              proposalList[numI].lender.transfer(proposalList[numI].amount); //Send back to lender\r\n            }\r\n          }\r\n        }\r\n        else\r\n          return;\r\n    }\r\n\r\n    //Amount to be Repaid\r\n     function getRepayValue(uint loanId) public view returns(uint) {\r\n        if(loanList[loanId].state == LoanState.LOCKED)\r\n        {\r\n          uint time = loanList[loanId].startDate;\r\n          uint finalamount = 0;\r\n          for(uint i = 0; i < loanList[loanId].proposalCount; i++)\r\n          {\r\n            uint numI = loanList[loanId].proposal[i];\r\n            if(proposalList[numI].state == ProposalState.ACCEPTED)\r\n            {\r\n              uint original = proposalList[numI].amount;\r\n              uint rate = proposalList[numI].rate;\r\n              uint now = block.timestamp;\r\n              uint interest = (original*rate*(now - time))/(365*24*60*60*100);\r\n              finalamount += interest;\r\n              finalamount += original;\r\n            }\r\n          }\r\n          return finalamount;\r\n        }\r\n        else\r\n          return (2**64 -1);\r\n    }\r\n\r\n     function repayLoan(uint loanId) public payable {\r\n      uint now = block.timestamp;\r\n      uint toBePaid = getRepayValue(loanId);\r\n      uint time = loanList[loanId].startDate;\r\n      uint paid = msg.value;\r\n      if(paid >= toBePaid)\r\n      {\r\n        uint remain = paid - toBePaid;\r\n        loanList[loanId].state = LoanState.SUCCESSFUL;\r\n        for(uint i = 0; i < loanList[loanId].proposalCount; i++)\r\n        {\r\n          uint numI = loanList[loanId].proposal[i];\r\n          if(proposalList[numI].state == ProposalState.ACCEPTED)\r\n          {\r\n            uint original = proposalList[numI].amount;\r\n            uint rate = proposalList[numI].rate;\r\n            uint interest = (original*rate*(now - time))/(365*24*60*60*100);\r\n            uint finalamount = interest + original;\r\n            proposalList[numI].lender.transfer(finalamount);\r\n            proposalList[numI].state = ProposalState.REPAID;\r\n          }\r\n        }\r\n        msg.sender.transfer(remain);\r\n      }\r\n      else\r\n      {\r\n        msg.sender.transfer(paid);\r\n      }\r\n    }\r\n\r\n     function acceptProposal(uint proposeId) public\r\n    {\r\n        uint loanId = getActiveLoanId(msg.sender);\r\n        if(loanId == (2**64 - 1)) return;\r\n        Proposal storage pObj = proposalList[proposeId];\r\n        if(pObj.state != ProposalState.WAITING) return;\r\n\r\n        Loan storage lObj = loanList[loanId];\r\n        if(lObj.state != LoanState.ACCEPTING) return;\r\n\r\n        if(lObj.collected + pObj.amount <= lObj.amount)\r\n        {\r\n          loanList[loanId].collected += pObj.amount;\r\n          proposalList[proposeId].state = ProposalState.ACCEPTED;\r\n        }\r\n    }\r\n\r\n\r\n\r\n// BORROWER ACTIONS AVAILABLE\r\n\r\n    function totalLoansBy(address borrower) public view returns(uint) {\r\n        return loanMap[borrower].length;\r\n    }\r\n\r\n    function getLoanDetailsByAddressPosition(address borrower, uint pos) public view returns(LoanState, uint, uint, uint, uint,bytes32) {\r\n        Loan storage obj = loanList[loanMap[borrower][pos]];\r\n        return (obj.state, obj.dueDate, obj.amount, obj.collected, loanMap[borrower][pos], obj.mortgage);\r\n    }\r\n\r\n    function getLastLoanState(address borrower) public view returns(LoanState) {\r\n        uint loanLength = loanMap[borrower].length;\r\n        if(loanLength == 0)\r\n        return LoanState.SUCCESSFUL;\r\n        return loanList[loanMap[borrower][loanLength -1]].state;\r\n    }\r\n\r\n    function getLastLoanDetails(address borrower) public view returns(LoanState, uint, uint, uint, uint) {\r\n        uint loanLength = loanMap[borrower].length;\r\n        Loan storage obj = loanList[loanMap[borrower][loanLength -1]];\r\n        return (obj.state, obj.dueDate, obj.amount, obj.proposalCount, obj.collected);\r\n    }\r\n\r\n    function getProposalDetailsByLoanIdPosition(uint loanId, uint numI) public view returns(ProposalState, uint, uint, uint, address) {\r\n        Proposal storage obj = proposalList[loanList[loanId].proposal[numI]];\r\n        return (obj.state, obj.rate, obj.amount, loanList[loanId].proposal[numI],obj.lender);\r\n    }\r\n\r\n    function numTotalLoans() public view returns(uint) {\r\n        return loanList.length;\r\n    }\r\n\r\n\r\n// Lender side methods:\r\n\r\n\r\n    function newProposal(uint loanId, uint rate) public payable {\r\n        if(loanList[loanId].borrower == address(0) || loanList[loanId].state != LoanState.ACCEPTING)\r\n            return;\r\n        proposalList.push(Proposal(msg.sender, loanId, ProposalState.WAITING, rate, msg.value));\r\n        lendMap[msg.sender].push(proposalList.length-1);\r\n        loanList[loanId].proposalCount++;\r\n        loanList[loanId].proposal[loanList[loanId].proposalCount-1] = proposalList.length-1;\r\n    }\r\n\r\n\r\n\r\n    function revokeMyProposal(uint id) public {\r\n        uint proposeId = lendMap[msg.sender][id];\r\n        if(proposalList[proposeId].state != ProposalState.WAITING) return;\r\n        uint loanId = proposalList[proposeId].loanId;\r\n        if(loanList[loanId].state == LoanState.ACCEPTING) {\r\n            // Lender wishes to revoke his ETH when proposal is still WAITING\r\n            proposalList[proposeId].state = ProposalState.REPAID;\r\n            msg.sender.transfer(proposalList[proposeId].amount);\r\n        }\r\n        else if(loanList[loanId].state == LoanState.LOCKED) {\r\n            // The loan is locked/accepting and the due date passed : transfer the mortgage\r\n            if(loanList[loanId].dueDate < now) return;\r\n            loanList[loanId].state = LoanState.FAILED;\r\n            for(uint i = 0; i < loanList[loanId].proposalCount; i++) {\r\n            uint numI = loanList[loanId].proposal[i];\r\n            if(proposalList[numI].state == ProposalState.ACCEPTED) {\r\n            // transfer mortgage\r\n                }\r\n            }\r\n        }\r\n    }\r\n\r\n     function totalProposalsBy(address lender) public view returns(uint) {\r\n        return lendMap[lender].length;\r\n    }\r\n\r\n     function getProposalAtPosFor(address lender, uint pos) public view returns(address, uint, ProposalState, uint, uint, uint, uint, bytes32) {\r\n        Proposal storage prop = proposalList[lendMap[lender][pos]];\r\n        return (prop.lender, prop.loanId, prop.state, prop.rate, prop.amount, loanList[prop.loanId].amount, loanList[prop.loanId].dueDate, loanList[prop.loanId].mortgage);\r\n    }\r\n\r\n}\r\n\r\n",
  "sourcePath": "D:/p2plending/contracts/CrowdBank.sol",
  "compiler": {
    "name": "solc",
    "version": "0.5.8+commit.23d335f2.Emscripten.clang"
  },
  "schemaVersion": "3.0.16",
  "updatedAt": "2019-10-08T09:30:54.265Z",
  "devdoc": {
    "methods": {}
  },
  "userdoc": {
    "methods": {}
  }
}